{
  "_format": "hh-sol-artifact-1",
  "contractName": "BasicDutchAuction",
  "sourceName": "contracts/BasicDutchAuction.sol",
  "abi": [
    {
      "inputs": [
        {
          "internalType": "uint256",
          "name": "_reservePrice",
          "type": "uint256"
        },
        {
          "internalType": "uint256",
          "name": "_numBlocksAuctionOpen",
          "type": "uint256"
        },
        {
          "internalType": "uint256",
          "name": "_offerPriceDecrement",
          "type": "uint256"
        }
      ],
      "stateMutability": "nonpayable",
      "type": "constructor"
    },
    {
      "inputs": [],
      "name": "bid",
      "outputs": [
        {
          "internalType": "address",
          "name": "",
          "type": "address"
        }
      ],
      "stateMutability": "payable",
      "type": "function"
    },
    {
      "inputs": [],
      "name": "getPrice",
      "outputs": [
        {
          "internalType": "uint256",
          "name": "",
          "type": "uint256"
        }
      ],
      "stateMutability": "view",
      "type": "function"
    },
    {
      "inputs": [],
      "name": "getSellerAddress",
      "outputs": [
        {
          "internalType": "address",
          "name": "",
          "type": "address"
        }
      ],
      "stateMutability": "view",
      "type": "function"
    },
    {
      "inputs": [],
      "name": "numBlocksAuctionOpen",
      "outputs": [
        {
          "internalType": "uint256",
          "name": "",
          "type": "uint256"
        }
      ],
      "stateMutability": "view",
      "type": "function"
    },
    {
      "inputs": [],
      "name": "offerPriceDecrement",
      "outputs": [
        {
          "internalType": "uint256",
          "name": "",
          "type": "uint256"
        }
      ],
      "stateMutability": "view",
      "type": "function"
    },
    {
      "inputs": [],
      "name": "reservePrice",
      "outputs": [
        {
          "internalType": "uint256",
          "name": "",
          "type": "uint256"
        }
      ],
      "stateMutability": "view",
      "type": "function"
    },
    {
      "inputs": [],
      "name": "winnerOfTheAuction",
      "outputs": [
        {
          "internalType": "address",
          "name": "",
          "type": "address"
        }
      ],
      "stateMutability": "view",
      "type": "function"
    }
  ],
  "bytecode": "0x61012060405260018060006101000a81548160ff0219169083151502179055506000600360006101000a81548173ffffffffffffffffffffffffffffffffffffffff021916908373ffffffffffffffffffffffffffffffffffffffff1602179055503480156200006e57600080fd5b5060405162000e0c38038062000e0c833981810160405281019062000094919062000169565b8260808181525050816000819055508060a081815250503373ffffffffffffffffffffffffffffffffffffffff166101008173ffffffffffffffffffffffffffffffffffffffff16815250508082620000ee9190620001f4565b83620000fb91906200023f565b60c081815250504360e08181525050600054436200011a91906200023f565b6002819055505050506200027a565b600080fd5b6000819050919050565b62000143816200012e565b81146200014f57600080fd5b50565b600081519050620001638162000138565b92915050565b60008060006060848603121562000185576200018462000129565b5b6000620001958682870162000152565b9350506020620001a88682870162000152565b9250506040620001bb8682870162000152565b9150509250925092565b7f4e487b7100000000000000000000000000000000000000000000000000000000600052601160045260246000fd5b600062000201826200012e565b91506200020e836200012e565b92508282026200021e816200012e565b91508282048414831517620002385762000237620001c5565b5b5092915050565b60006200024c826200012e565b915062000259836200012e565b9250828201905080821115620002745762000273620001c5565b5b92915050565b60805160a05160c05160e05161010051610b31620002db600039600081816102790152818161048101526105340152600061057d015260006105b301526000818161055c015261060901526000818161034b015261062d0152610b316000f3fe6080604052600436106100705760003560e01c806398d5fdca1161004e57806398d5fdca146100e95780639c604bf114610114578063d3642a881461013f578063db2e1eed1461016a57610070565b80631998aeef146100755780633103ea621461009357806384b09e86146100be575b600080fd5b61007d610195565b60405161008a9190610690565b60405180910390f35b34801561009f57600080fd5b506100a861052a565b6040516100b591906106c4565b60405180910390f35b3480156100ca57600080fd5b506100d3610530565b6040516100e09190610690565b60405180910390f35b3480156100f557600080fd5b506100fe610558565b60405161010b91906106c4565b60405180910390f35b34801561012057600080fd5b506101296105e1565b6040516101369190610690565b60405180910390f35b34801561014b57600080fd5b50610154610607565b60405161016191906106c4565b60405180910390f35b34801561017657600080fd5b5061017f61062b565b60405161018c91906106c4565b60405180910390f35b6000600160009054906101000a900460ff166101e6576040517f08c379a00000000000000000000000000000000000000000000000000000000081526004016101dd9061073c565b60405180910390fd5b600073ffffffffffffffffffffffffffffffffffffffff16600360009054906101000a900473ffffffffffffffffffffffffffffffffffffffff1673ffffffffffffffffffffffffffffffffffffffff1614610277576040517f08c379a000000000000000000000000000000000000000000000000000000000815260040161026e906107ce565b60405180910390fd5b7f000000000000000000000000000000000000000000000000000000000000000073ffffffffffffffffffffffffffffffffffffffff163373ffffffffffffffffffffffffffffffffffffffff1603610305576040517f08c379a00000000000000000000000000000000000000000000000000000000081526004016102fc9061083a565b60405180910390fd5b6002544310610349576040517f08c379a0000000000000000000000000000000000000000000000000000000008152600401610340906108cc565b60405180910390fd5b7f00000000000000000000000000000000000000000000000000000000000000003410156103ac576040517f08c379a00000000000000000000000000000000000000000000000000000000081526004016103a39061095e565b60405180910390fd5b600047116103ef576040517f08c379a00000000000000000000000000000000000000000000000000000000081526004016103e6906109ca565b60405180910390fd5b60006103f9610558565b90508034101561043e576040517f08c379a000000000000000000000000000000000000000000000000000000000815260040161043590610a36565b60405180910390fd5b33600360006101000a81548173ffffffffffffffffffffffffffffffffffffffff021916908373ffffffffffffffffffffffffffffffffffffffff1602179055507f000000000000000000000000000000000000000000000000000000000000000073ffffffffffffffffffffffffffffffffffffffff166108fc349081150290604051600060405180830381858888f193505050501580156104e5573d6000803e3d6000fd5b506000600160006101000a81548160ff021916908315150217905550600360009054906101000a900473ffffffffffffffffffffffffffffffffffffffff1691505090565b60005481565b60007f0000000000000000000000000000000000000000000000000000000000000000905090565b60007f00000000000000000000000000000000000000000000000000000000000000007f0000000000000000000000000000000000000000000000000000000000000000436105a79190610a85565b6105b19190610ab9565b7f00000000000000000000000000000000000000000000000000000000000000006105dc9190610a85565b905090565b600360009054906101000a900473ffffffffffffffffffffffffffffffffffffffff1681565b7f000000000000000000000000000000000000000000000000000000000000000081565b7f000000000000000000000000000000000000000000000000000000000000000081565b600073ffffffffffffffffffffffffffffffffffffffff82169050919050565b600061067a8261064f565b9050919050565b61068a8161066f565b82525050565b60006020820190506106a56000830184610681565b92915050565b6000819050919050565b6106be816106ab565b82525050565b60006020820190506106d960008301846106b5565b92915050565b600082825260208201905092915050565b7f41756374696f6e20697320636c6f736564000000000000000000000000000000600082015250565b60006107266011836106df565b9150610731826106f0565b602082019050919050565b6000602082019050818103600083015261075581610719565b9050919050565b7f57696e6e6572206973206465636c6172656420616e642061756374696f6e206960008201527f7320636c6f736564000000000000000000000000000000000000000000000000602082015250565b60006107b86028836106df565b91506107c38261075c565b604082019050919050565b600060208201905081810360008301526107e7816107ab565b9050919050565b7f53656c6c6572206973206e6f74207065726d697474656420746f206269640000600082015250565b6000610824601e836106df565b915061082f826107ee565b602082019050919050565b6000602082019050818103600083015261085381610817565b9050919050565b7f526f756e6473206861766520657863656564656420616e642061756374696f6e60008201527f20697320636c6f73656400000000000000000000000000000000000000000000602082015250565b60006108b6602a836106df565b91506108c18261085a565b604082019050919050565b600060208201905081810360008301526108e5816108a9565b9050919050565b7f506c6561736520656e746572206120707269636520677265617465722074686160008201527f6e20726573657276652070726963650000000000000000000000000000000000602082015250565b6000610948602f836106df565b9150610953826108ec565b604082019050919050565b600060208201905081810360008301526109778161093b565b9050919050565b7f506c6561736520726563686172676520796f75722077616c6c65740000000000600082015250565b60006109b4601b836106df565b91506109bf8261097e565b602082019050919050565b600060208201905081810360008301526109e3816109a7565b9050919050565b7f496e73756666696369656e742046756e64730000000000000000000000000000600082015250565b6000610a206012836106df565b9150610a2b826109ea565b602082019050919050565b60006020820190508181036000830152610a4f81610a13565b9050919050565b7f4e487b7100000000000000000000000000000000000000000000000000000000600052601160045260246000fd5b6000610a90826106ab565b9150610a9b836106ab565b9250828203905081811115610ab357610ab2610a56565b5b92915050565b6000610ac4826106ab565b9150610acf836106ab565b9250828202610add816106ab565b91508282048414831517610af457610af3610a56565b5b509291505056fea264697066735822122009909619f9e1a7b3c35b8ec7b91c8e5ffd8b5d3117af488e55955f50a9ee292a64736f6c63430008110033",
  "linkReferences": {},
  "deployedLinkReferences": {}
}